:20000000003A012019E9010039FB021039FB021039FB021039FB021039FB021039FB0210DE
:1C00200039FB021039FB021039FB021039FB021039FB021039FB021011FB021002
:20004000BA492DE9F04F0446B74ADFF8E8920E68A578507800279046ADF1540D29460C29B1
:2000600007D9DFF8CCB2DFF8D0A2203933290FD953E3DFE811F06D055E0543052D050D0506
:20008000F704F304DD04C7045203BA04B6049604DFE811F083047F047B046B046704EC0242
:2000A00051042F04B10287024303430343034303430343030B04F003D303B80359029D034A
:2000C0003402FC01430343034303430343034303E801B5019C0143038C03790183037703BE
:2000E0006A0354012A01E500660362035803C000480382004503670046003400E1788DF871
:200100002A7031F07F0006D011F07F0F0CBF381C0120CA49087053210DF12A0300F004BD25
:2001200008F1110332203946012224F037FD08F1120333203946012224F030FDC84898F892
:2001400011100078012905D04FF400611DF03CFD00F001BD4FF40061642225F068F800F0E0
:20016000FABC8DF82B7078B9E41C204624F02EFF0546A01C0446083024F028FF024621465E
:20018000284622F03EFF00E012208DF82B0051210DF12B0300F0C8BCE01C24F017FFE51CA7
:2001A000AE784FF6FF748DF80A600546ADF80850AC4218D0E01EA84215D0A01EA84212D0FD
:2001C00002208DF80C00ADF80E5003A81AF03AFF012818BF4FF001090CD1BDF80E00ADF8ED
:2001E0000800012000E038468DF80B0002A81CF033FD8146E41EAC4204DC012088F82A00A0
:2002000088F82B6020F03EFC8DF82C904F210BAB00F08ABC20798DF82E00E078012814D03B
:20022000022809D0032805D052200DF12E0123F0A5F80FE03C4600E0012452200DF12E0157
:2002400020F060FC88F8004004E052200DF12E0120F058FC4D210DF12E0300F065BCE17884
:2002600038465EB13279914205D1F2880DEB4003401CC0B21A813668002EF3D18DF830003A
:200280009DF83000012404EB4000C0B2054619F011F85FEA000806D18DF830704921224657
:2002A0000CAB00F042BC02469DF8300002F8010B38469DF8301081420ADC652049212A462B
:2002C000434620F04DFF404620F09CFA00F043BC0DEB400108310B7813700988401CC0B247
:2002E00009125170921CE4E7301CE4788DF8317013D03E4601798C420BD11EB905680B49B8
:200300000D6002E001683160056820F07BFA284601E0064600680028ECD120F013FC0DF19D
:200320003103472100F000BC4C040120840501208B1901209003012002000120E01C10F8BA
:20034000014B24F043FE0146C7480068224650B13E4603799A4202D1C388994205D00646DF
:2003600000680028F5D1012008E006B9BE4E0168316020F047FA20F0E5FB38468DF83200E3
:200380000DF13203CDE739460DF12200062207911AF01EFEE01C07A923F0E6FC8DF82200A9
:2003A000079870B101888DF8231046888DF8256009128DF8241031128DF8261000798DF894
:2003C0002700432106220DF12203AEE364788DF8377048B1012805D002281CBF01208DF80C
:2003E000370004D1022000E004200DF07FFA24F01F04202C40F0AF830DF13703EEE2204602
:2004000090F80180C01C24F0E1FD59460A7849468E6856B13C4633799A4202D1F388984226
:2004200005D034463668002EF5D101200EE03CB9346804B93C468C6004E0C04654000120B1
:2004400030682060304620F0DDF9384628F01F088DF83800B8F1200F40F07D830EABBDE24E
:20046000C8FF002020464478C01C24F0AFFD0146584600781EF0E4FE24F01F048DF8390095
:20048000202C40F068830DF13903A7E2E41C204624F09CFDA41CADF8080014F8010B042175
:2004A0008DF81000204623F05DFD0646201D10F8019B10F8018B24F089FD044631464A4628
:2004C000434602A800941CF0B9FA8DF83A009DF810000F280FD1022053468DF8100018882B
:2004E00031464A46ADF80800434602A800941CF0A5FA8DF83A000DF13A036FE22078264687
:20050000042806F1030614BF16F8010B02208DF81000304624F05AFDD54CADF80800B01C90
:2005200010F8018B012626700278414602A81DF099FE8DF83B002770404624F0E7F80DF14D
:200540003B0332464BE20220E41C8DF81000204624F03CFD4E46A11CADF808000C7A7068F2
:2005600024F089FE7168C4F3400804F00104B8F1010F0F7204D17268107A40F040001072AA
:20058000012C03D1087A40F080000872484602A9342209231CF0D2FD0DF13D038DF83D0018
:2005A000C1E20226E41C8DF81060204624F00EFDA41CADF80800204624F008FDA27880462A
:2005C00002A84146144623F041FE8DF845009DF810000F280CD1504600888DF81060414621
:2005E0002246ADF8080002A823F030FE8DF845000DF14503F2E10226E41C8DF81060204695
:2006000024F0E4FCA41CADF8080014F8010B8DF84700204624F0DAFCA41C14F8019B804617
:2006200002A90DF14700424600944B4601971FF0FBFE8DF846009DF810000F2811D150465E
:2006400000888DF810603E4602A94246ADF808004B4600940DF1470001961FF0E5FE8DF841
:2006600046000DF14603B9E184050120A946E51CA878B846FE280BD1E878FF2808D12078A1
:20068000082805DB284624F0A1FC294622F029FF284608A923F0ACFE041C0ED1182018F067
:2006A00009FE5FEA000807D0BDF8200039461822434624F073FA00B1C824192018F0FAFD9E
:2006C000061C20D05CB9701C2946082223F082FF06F109004146102223F07CFF04E0701C83
:2006E000FF2118221AF074FC3470652049461922334620F035FD3046394619221AF068FCDA
:20070000304620F07FF8B8F1000F00F024824046394618221AF05CFCD5E502271BE21BF002
:200720004BF818E2E01C24F051FCE51C0246A81C10F8011B1BF032FB4E210DF12D038DF894
:200740002D00F1E18DF82F7023F0F8FF0DF12F034C218DF82F00E7E120461AF0F3FFFAE116
:2007600020461DF0DEF8F6E1E01C24F02FFC6179A2791CF0A6FA46210DF133038DF833002A
:20078000D2E1E01C24F022FC6179A27911F082F945210DAB8DF83400C6E1E01C10F09CFEF3
:2007A00044210DF135038DF83500BDE1E01C24F00DFCE51CA91C0B4608310A4619461EF020
:2007C0007FF842210DF136038DF83600ACE10220E41C8DF81000204624F0F8FB4E46A11C4B
:2007E000ADF808000C7A706824F045FD706802A935220923047248461CF0A0FC0FAB8DF8A7
:200800003C00EBE00220E41C8DF81000204624F0DDFBADF80800A0780DF13F0602A93322C0
:200820008DF83F0001230096484601971FF0FCFD0DF13E038DF83E00D0E00220E41C8DF8B3
:200840001000204624F0C2FBADF80800A0780DF1410602A932228DF841000123009648463A
:2008600001971FF0E1FD10AB8DF840005BE1C046300A01200220E41C8DF81000204624F0A5
:20088000A5FBADF80800A0780DF1430602A931228DF8430001230096484601971FF0C4FD36
:2008A0000DF142038DF842003DE10220E41C8DF81000204624F08AFBA41CADF808000421C8
:2008C000204623F04FFB4E46221D014612F8018B7068137823F072FE02A900F8018B30223E
:2008E0000370484606231CF029FC11AB8DF8440019E10126E41C8DF84860601C24F066FBD9
:20090000814604F10B0024F061FB804694F800A0637BA07B21F056FA0093E01C494652469E
:20092000434612F049FE12AB8D498DF84800042024F076FB05E60126E41C04218DF8496077
:20094000204623F00FFB21791DF0DEF885498DF84900022024F064FB83490DF1490303202D
:20096000E6E7204618F060FFF5E0E41C204624F02DFBA11C0B4608310A4619461DF0A0FFC4
:200980000DF14A038DF84A00CDE0204619F003FBE1E0204619F0BCFADDE020460FF020FB00
:2009A000D9E0E01C24F012FB4E464FF6FD740F22ADF8084071688DF81020022304121522F9
:2009C00001F8010B48460C7002A9F7701CF0B6FB39468DF84B000DF14B03F17001222946AB
:2009E000A3E0204617F098FFB5E0E41C204624F0EDFAA11C0A7A3B4620F0B4FE13AB8DF8B3
:200A00004C0090E00220E41C8DF81000204624F0DDFAADF80800A01C24F0D8FA0146112249
:200A200002A823F013FC0DF14D038DF84D007AE00220E41C8DF81000204624F0C7FAADF8D9
:200A40000800A01C24F0C2FA0146102202A823F0FDFB0DF14E038DF84E0064E020460EF00A
:200A600079FD78E00220E41C8DF81000204624F0ADFAADF80800A01C24F0A8FA0146052243
:200A800002A823F0E3FB0DF14F038DF84F004AE00220E41C8DF81000204624F097FAA41CEB
:200AA000ADF80800204624F091FA4E467268A17810707268031253707068032304228170B6
:200AC00002A948461CF03AFB14AB8DF850002AE00220E41C8DF81000204624F077FAADF8B7
:200AE0000800A01C24F072FA0146032202A823F0ADFB0DF151038DF8510014E00226E41C9D
:200B00008DF81060204624F061FAADF80800A01C24F05CFA0146324602A823F097FB0DF12C
:200B200052038DF8520029460122652020F018FB11E0E41C204624F049FAA41C14F8011BB9
:200B4000227821F073F90DF153038DF85300EAE7204616F01FFB384615B0BDE8F08FC0468E
:200B600083160200A1350200794501002DE9F04F04464FF6FE70ADF15C0DADF85400A44805
:200B800040784FF00008022812D1A148007878B92089002807BF30204146102001210EF0F9
:200BA000D3FA8DF8568052200DF156011FF0AAFF6068217A08AA11F06DFD002800F0D98499
:200BC0009DF822000228B4BF012747469DF824000228A8BF4746BDF82A104FF6FE7BABF1EC
:200BE000060B8B450ED04FF6FE70401F884209D04FF6FE70001F884204D04FF6FE70C01E80
:200C0000884200D1474624F0B1F99DF82310884240F0AF84002F00F0AC847D484078022803
:200C200004D19DF85100002840F0A384208D9DF82660678EADF84C00ADF82E70D6B1616839
:200C40009DF821209DF83C30012023F017FD002840F08F84C448001D007801280AD1208DB8
:200C600024F0ADFA30B1417901F0EF01417141F0080141719DF82570DFF8E492DFF8E4A2CB
:200C80004646002F49D19DF83D00474658BBBDF82A0003461FF056FD4546022808BF0125E1
:200CA000002D9DF8225018BF012749460988994208BF47F0020727B1002D14BF4021202185
:200CC0000F4318461FF03EFD012808BF47F00107002D3BD01298007823F0A4FF012818BFDB
:200CE00027F0010732E09DF8411041B1FF2906D09DF84000119A21F04BF850B126E052467A
:200D0000BDF82A10508F884205D092F84A0004281CD101261AE0222718E0BDF82A10FF2009
:200D200021F090FF002804BF3D1C082708D09DF8250047F001052C2740F001008DF82500A3
:200D400005F00305012D08BF47F0110730489DF82650407830F0010005D107F002010E43D5
:200D600008BF47F08007DFF8DCC295B961460E787EB107F0220122290BD007F042014229EA
:200D800040F0F78312990978062918BF072940F0F083F9094FEAA7155AD3BDF82A201299D6
:200DA00048B96046C01C0078800804D30878401E0A282FD909E00878C01E01282AD9001F2F
:200DC00028D0C01E26D0801E24D0B8F1000F21D148460088904240F0CC830D780520BDF845
:200DE0002C408DF8110004A822F08EFE002800F0C0830269032313271370511C0F704C7056
:200E000022128A70CD70448009F090F8B1E3C0464C04012068081BD30878032802D148787B
:200E20000D2815D09DF8280038B1BDF82C000E990DF080FF012800F098839DF8270038B115
:200E4000BDF82A000D990DF075FF012800F08A8309F10E00B4F844100088884209D1CDF87D
:200E60000080208DB4F8421094F8462043460AF025FE9DF82600002843D0208DB4F842100E
:200E80001FF07CFB061C25D19DF8510088B99AF89000012835D112980078062801D16808AA
:200EA0002FD2BDF82E100BF10700884240F0C5805FE3042022F0A2FD011C00F05A83642077
:200EC000087001274F70208D48809AF800001EF003FC4EE39DF821106068F3780A18527B86
:200EE0009A4203D0F27040467060606840180421401C23F037F87168814200F23A83401C01
:200F00007060B348DFF8C4B24078022800F08F8230F0010040F02D839AF832008008C0F0D9
:200F200028839DF8510030B3BDF82C0023F0FDFAE0B9A5495C46BDF82C000B686269990170
:200F4000A1EB83019047012840F01383A169BDF82C008847E168BDF82C00884709E3C04616
:200F600002000120C8FF0020C8FF00206168487800F0DF0048709DF8320038B161688879F6
:200F8000401E8871C0B28DF8320008B907F07F07380924D39DF82500F9084FF4805814D29F
:200FA00079091AD3811011F0070F01F0070604D0072E1CBF761EF6B20EB907F07F0700F0C8
:200FC000E30040EA8600C0B205E020F01C00C11021F0030108438DF82500616808729AF84B
:200FE0004A00042800F0E981092800F0E68117F0610F40F0EF809DF82200012811D1129817
:201000000078052800F0D88003280AD1BDF82A0023F08BFA28B1218D08A815AA002301F05C
:20102000CFFB9DF8320078B99DF82200012804D112980078032800F09C8208A821461DF0BA
:20104000C3FC96E2F7FF002022F0E6FF002840F090829DF83D0000286DD19DF82400BDF83C
:201060002A10FD100028ADF854102ED13A0930D29DF82220012A28D0084600211AF06CFDD8
:20108000002620B14079012816D0022814D0BDF85400B4F844101FF071FA28B1807822F01D
:2010A000E0FC08B1082807DBBDF82C0023F03DFA18B104208DF824000126BDF82A10002E84
:2010C00008BF022272D09DF824006A0838BF002300D340230DF13D021AF078FD30B1616802
:2010E000087848F0200800F03F0008709DF83D0040B1BDF82A1010A81FF004FB48F0400871
:20110000ADF854009DF82200012806D0BDF82A00BDF82C10002217F0BBF868082CBF4022B7
:201120000022BDF82C10BDF82A0014F09BFA08B148F0200833E09DF840009DF84110119A92
:2011400020F026FE00282ED09DF8410038B9BDF82A00ADF8540024F032F800BB1DE01199F6
:201160009DF8286001EB400030F8020C002EADF854000CBF082110219DF8270008B10831F6
:20118000C9B29DF82500002200B1012266688918491CCAB2905D401E905548F0400822F012
:2011A0005BFA8146A8E0BDF82A100B22BDF82C0000231AF017FADCE1218D08A815AA002353
:2011C00001F0FEFAD5E1C046146A0200E00101204C04012078084FF0000967D39DF83300AD
:2011E000B4F828B0C04D494616901E20EA79169B934206D1BDF82C302A88934201D1AE789B
:201200002EB9401E05F1080501F10101EED11E2921D0AE79E6B1BAF84810584621F0C2FD65
:2012200008B1761EAE71BE4833210279FF2A02D00288934504D0491E00F12400F5D102E018
:20124000A879401EA871A8794828A4BF4E46AE7127F060072AE022F0FFF981469DF832002F
:2012600028B9BDF82C00218D814202D11EE0BDF82C00BAF83A10884202D19AF80600A8B1FF
:20128000218D08A84A460FF059FF58B1380932BFBDF82A004FF6FE70401C48F00408ADF8F7
:2012A000540003E027F020074FF00009B8094FEAA71510D394F8460094F8476094F94830CE
:2012C0008DF81000E26B8DF8116004A98DF8123008A804F033FF68080ED3218D08A815AA7E
:2012E0004B4601F06DFA5FEA000905D012980078012808BF48F01008BDF854104FF6FE70B0
:20130000884208BF4FF000099C49C97E012927D1628E411C914223D0228D914220D0BDF86C
:201320002A10401F88421BDDBDF82C00904217D023F045FFA0B10179012918BF02290FD18A
:2013400001218DF810104088ADF81C0004A81DF0E7FD28B105A81DF0D7F908B11FF092FBE8
:2013600037F07F0000F00581B9F1000F00F00181208917F09FFF071C00F0FB8061682289D6
:2013800023F028F9002605969DF822008DF81000CDF80090CDF8048004AD0296BDF854100C
:2013A0000395228D237A384613F07AFE002800F0E08038461FF026FADBE04946BDF82A0002
:2013C000098881420AD01FF0BDF9022806D09DF8250000F00300012840F0CB809DF8220012
:2013E00098B112980178042904D19DF83C10022900F090800078072804D19DF83C100429E9
:2014000000F0848003287CD0B3E094F846008DF8100094F847708DF8117094F948608DF864
:201420001260E26B08A804A904F088FEA1E09AF84A00042818BF092840F09B80B80971D236
:2014400012986908C0F095800178042903D19DF83C1002295ED00178072903D19DF83C208A
:20146000042A53D003294CD00C2940F08280401C424A10F8017B0578164601215120D21CA6
:20148000F57023F027FE3D4B3B49012658465C79067057B9002C14BF4EF660204FF47A7093
:2014A00051F8241000FB01F405E00846203000684EF6602444430320B4FBF0F441464FF405
:2014C00080400DF041FE9AF8000002211CF07CFB68080BD2A8084CD39AF80000022122469F
:2014E00023F0A2FE45E0C046C8C300204FF48040214615F0A5FD4FF4804031460DF024FEB9
:2015000037E008A8002111F067FD32E008A819F0E9FB2EE0002008A90BF07AFA29E0C04672
:20152000B0D1002094F8460094F847709DF832508DF8100094F948608DF81170012D8DF85B
:2015400012607FF46EAF208DBDF82C1088427FF468AFBDF82A001FF0F5F8022808BF8DF846
:2015600032805EE7BDF82A0001E0BDF82C001DF007FF17B0BDE8F08FF06902004C04012009
:20158000B94A2DE9F04F0846ADF14C0D11780F90000C80F067849246B44D0F9A6878920B20
:2015A00080F03184022813D10F9A520810D39AF850000F2807D19AF84A0020B1012802D079
:2015C00000201FF045FE0F9880F0010000F06ABC0F9A920980F04C83DFF89892DFF89882F6
:2015E00030F0010740F0BC820F9A520980F03D820F99C90980F0C4819D490F9F0A78390A9A
:2016000080F0AD813946490A43D23946090B2AD20F999AF80370490B1AD20F99C90BC0F09D
:201620009F824C46A06A70B1297D01290BD18047E06A00B180479AF800004FF480414FF4BE
:201640007A7223F0F1FD0F9880F4804000F02ABC27B100208AF803001EF05EFE0F9880F4EA
:20166000805000F01FBC1EF057FE687C01280BD1A97C49B19AF800004FF47A7212FB01F2A3
:201680004FF4006123F0D0FD384680F4006000F009BC23F071FC4FF6FE7B834500F05B81ED
:2016A0009AF832008008C0F0568100263446304621F088FD071C19D03879012816D00228B5
:2016C00014D0F879411CF9719AF88B1081420DDABC727C72388820F0E7FE388801A921F0CB
:2016E00000FF01A81DF010F81FF0CCF9761C332EDDDBA8F11C0614275D46119436F81C0F17
:2017000085420CD0307B9AF88B40411C8442317305DA1198B0747074308820F0C5FE7F1E9F
:20172000ECD14C46032104F13C0010F8047F0FB17F1E0770491EF8D1B04C332605F1010921
:2017400034F8240F81451FD001208DF804006788ADF8107001A81DF0E3FBA8B1A8F11C0510
:20176000142735F81C0F2188814208D0BDF80610814204D002A8A91C22F01EFE10B1284664
:2017800022F0ABFE7F1EECD1761ED9D1119D2C46284621F017FD48B1077937F0040705D1C2
:2017A000807A22F05EF908B1641CE4B26D1C332DEEDB22F083F8119E5FEA00080ED035465F
:2017C000284621F005FB28B1807C22F04AF908B1761CF6B26D1CEDB2A845F1DCA019C7B259
:2017E000002F4BD0B80017F065FD1090002808BF119F45D0BA00FF2119F0EAFB119E354638
:20180000B44218DD284621F0DDFC031C10D0187930F004000CD1987A22F023F9011C07D0C0
:20182000009718885A7A109B18F0F8FB761CF6B26D1C332DE4DBB8F1000F21D0119C204659
:2018400021F0C6FA061C0AD0B07C22F00AF9011C05D00097109B3088727C18F0DFFB641C3E
:20186000E4B2A045EBDC0BE0C8FF00204C04012096090120E001012020C6002011981090D2
:201880009AF83000002808BF4FF0620805D022F0E9FEC0F154005FFA80F80320B8F1600F0F
:2018A00098FBF0FAA8BF4FF01F0ADDF84090ABF1020BB8F1000F0EBF119D2025DDF844807D
:2018C000BA45A6BF3C1C45F040055446032014FB00F0801C8DF8050001A822F015F94E4693
:2018E000031C26D01869082104F01F02017045EA02014170801CA4B12246C01E361F16F826
:20190000041F00F8031F318809124170B17801F0070CF178521E01F0070141EA0C118170CD
:20192000EDD1A3F802B001209876184608F0FEFA00E00120E90906D2641EE4B20CB109EB8B
:2019400084093F1BFFB205F040052843B1D0109808B11EF057FF0F9880F48070A2E2104322
:2019600008D1B3480179012902D10021C170017120F0E2FB1DF018FE384680F0800091E267
:20198000B44C1E2600214FF006084FF00409A778002F43D07F1EFBB26079A37022F0D4FCD0
:2019A000071C3AD06BB9787B022808BF87F80D8033D087F80D803868407BF0211EF00AFB58
:2019C0002BE0A3791BB9787B032812D025E023791BB3E078401EC3B2E370F3B99AF82500BC
:2019E000E0702079401EC3B22371787B032814D133B9204639461EF085FF0EE08CD10020C6
:201A000087F80D9023F097FB00F00F00401C38819AF8000020211CF06DFB0121761E04F1FF
:201A20000804B4D19AF80000012910D040211CF0CBF895F82A00012813D1002085F82A00BE
:201A400095F82B0016F024F81FF01CF809E040211EF0B8FE28B99AF800004021642223F00E
:201A6000E3FB0F9880F040001CE2084610211EF0A9FE30B99AF8000010214FF47A7223F011
:201A8000D3FBBB48DFF8EC82417808F2AC54491ECFB217BB012141700020052122F0E4F9BB
:201AA000071C1BD006253846052122F0DDF90646388978B1401E80B2388158B97889C00808
:201AC00002D3387B20F0D8FC7D733868407BF0211EF080FA371CE6D100E0477064274FF645
:201AE000FE7600252079A0B1FF2812D0401E2071C0B270B96079032805D160882188022241
:201B00001BF0B2FD6079012803D0268066806571A5717F1E04F10804E4D108F15A040827E5
:201B2000207A401E2072C0B230B9C048214620F0F3FD90B9668025707F1E04F10A04EFD12D
:201B4000BB4AC82112F8080F08B1401E1070491EF8D10F9880F01000A4E11DF0D1FFE4E75B
:201B60004C460F992778890864D20F992289890A40D20F99090906D301200F9F8AF80600E3
:201B800087F008008EE10F99C90A26D20F98400C38BF0020C0F08681C44C332501262079FB
:201BA00080B105280EDA607900090BD28DF804606088ADF8100001A81DF0B2F910B102A8CE
:201BC0001CF0A2FD6D1E04F12404E8D100200F9F8AF8040087F4803064E1022801D119F030
:201BE000D5FBBAF84800012118F06CFC0F9880F4806057E1BAF8485004F108015020AAF8FC
:201C000048201EF07FFF2689142744466089854205D0864204D0204622F05FFC00E06681A1
:201C20007F1E04F11C04F1D10F9880F4007039E1D4E5002087B9BAF83E10012020F0DCF86D
:201C40006878022810D19AF8000001211BF0BCFF0AE0C046C8C3002001A823F0B4FA23F007
:201C600079F901A91CF08EF90F9880F0020019E1084620211EF0A6FD28B9DAF81000002877
:201C800008BF012616D023F085FC044623F050F94FF47A716043B0FBF1F1DAF810000028CE
:201CA00008BF002004D088428CBF4FF0FF30081A46086AD00020042122F0D6F8071C64D0C0
:201CC000FF254FF0FF3B06244FF001093846042122F0CAF810903889864204D8801B83B2A8
:201CE0003B8113B14EE000203881BB7B012B02D17889C00840D3002B36D08DF804508DF8BD
:201D000005508DF806B03968086AC97F02AA10F0C1FC4FF00008012808BFC8465FEA0800D9
:201D20001DD0788A40F08000ADF83600B87B8DF838007889000908D3BDF8360040F4807045
:201D4000ADF83600387B8DF83A007B6913B1187BADF8180001A9002202A804F0EFF97C73FD
:201D6000387B18F03FFF0DE087F80D900AE0C046140F0120A4C200207C733868407BB72185
:201D80001EF028F9109F002FA0D10BF021FC9AF800300020012122F067F818B118462021D0
:201DA0001CF0A8F90020042122F05EF8B3B278B152460789147822F057F8F8B9BB42AEBF0B
:201DC0000027FF1ABFB2204627B920211CF092F900200DE07A00202123F029FA23F0DAFB4E
:201DE000044623F0A5F84FF47A716043B0FBF1F0CAF810000F9880F0200053E00289BA42C9
:201E0000D8BF171CD7E723F04CFA294C0546201D00680746C0B157F80C1C9AF8000049B9B3
:201E20004FF400511BF0BCFB08E0C0463901020068CB00204FF400511CF05CF920463946F5
:201E40000022001D20F0C4F9284623F09FFB2FB13846FEF78BFE384621F0C6FE0F9880F411
:201E600000501FE008461CF017F9071C17D0114920310A78FF2A0FD03C780B46002094426F
:201E800007D0401CC0B2C200D1189A5CFF2AF6D102E0496838468847384621F0A5FE0F9853
:201EA00080F4004013B0BDE8F08FC046B0D10020900A0120F06502002DE9F04FC14DC24C5D
:201EC000DFF808A3C44E88465FEA1840ADF11C0D80F09E826F78DFF8F892DFF8F8B25FEA96
:201EE000580080F01B82384630F0010040F091805FEA980058D25FEA981044D25FEAD8303A
:201F0000C0F087800120022121F048F9C5B20DB3E80017F0CFF9071C1DD0C04C82464FF063
:201F2000010933262079012818BF02280DD18DF804906088ADF8100001A81CF0F1FF20B171
:201F400002A9504623F097F98246761E04F12404E8D100E0002797B175B10F204FF6FC7610
:201F60008DF80C001F24ADF8046001A92A463B46C248009414F052FD38461EF043FC88F4B1
:201F8000804000F00DBC207A38B92078062802D1072022F0A3FB21F0B7FEE07910211CF071
:201FA000A9F888F02000FBE3207AE8B92178E079082917D122F040F8092022F08FFBBF48AE
:201FC0000078052806D0072809D10720012105F0DDFA04E0012021F0E5F91BF013F821F04D
:201FE00093FE13E010210FE022F0BAFFEF2803DB002021F0D7F909E022F0B2FF1030C0B21E
:2020000022F0C0FFE07901211CF074F888F00200C6E3CE48CE4B0668B3F900005FEA5811DE
:2020200080F04E815FEA181028BF88F0080080F0B7835FEA582080F0D1805FEAD80080F0CC
:20204000B78037F001001CD15FEAD81019D32069A0B115F0E5FA2069076820691EF0D2FBFD
:2020600027615FB1FA8802E0F888801AF8803F68002FF9D1E079402123F0D9F888F04000DC
:202080008EE35FEA182064D25FEA98205CD2C84C5FEA18302CD25FEAD82027D3142017F0D0
:2020A00009F9071C1FD0002524342E46207A012812D1009704202946324614231FF04EFA45
:2020C00050B9206838606068294614223B46786004201FF0C9FF26726D1C0C34C82DE5DB00
:2020E00038461EF08FFB88F4806059E3002057E3182017F0DFF8071C23D000252E46207A79
:20210000012812D1009706202946324618231FF025FA50B9206838616068294618223B468A
:20212000786106201FF0A0FF26726D1C0C34032DE5DB38463146182218F04AFF38461EF095
:2021400061FB88F400602BE318F07AF988F4007026E31AF057FF207805281DD1E079042138
:202160001BF032FDE07904211BF01AFA062022F0B5FA687830F0010007D15046007800F0CA
:202180000700022801D022F0DBFD1EF07BFC18F057F91DF02DF801E01EF074FC012020F0B4
:2021A0002BFA0320012105F0F1F988F08000F7E2FF2003211FF05EFC22F0EAFEC249012033
:2021C0000860FEE74C0401202C030120A0180120C8FF0020A40401209C1801204A4692F879
:2021E0004A00082818BF042845D124322120742122F070FFBF4E6878716832880024B14604
:20220000A2423DDC30F001002DD1044CFF25002694F82100802822D102E0C046B0D1002037
:202220006788ADF8067023798DF80830A1798DF80A1062798DF809202088ADF80400E77948
:2022400084F82150237D8DF80B70A7698DF80C3031461022032001AB04971FF005FF761C68
:202260002434332ED4DBBB48006800B18047002002211FF0FFFB88F4807091E29003012034
:20228000A30003EBC403CF5C37F07F0C13D017F07F07CF540B4405D101A8FF210C2218F052
:2022A00097FE01AB012021460C221FF0DDFE6878D9F804103288641CA4B2A1E7D705012063
:2022C000B0F1FF3F37465C4602D1B8480078A0805FB17968087818B14868007819F046FEE6
:2022E0003F68002FF5D1B4F90400B0F1FF3F02D0C0B219F03BFE22F03FFEAD49088022F04D
:2023000039F9687C012806D14C4620784FF40061642222F08CFF88F0100041E2012022F0D8
:20232000DDF93046677801793546122201F0070A11F0070F16D1022F0CD0012F12D1082001
:2023400022F0CCF922F0FCFC0BE0C0466C0A0120A8040120082022F0C1F90020014611F0EB
:202360000FFB0246BAF1010F18BFBAF1020F45D107B3032F1ED0012F40D1BAF1010F3DD1C3
:202380000A2022F0ABF94C4620784FF480611BF01BFC502005A920F0F1FFBDF81400A4F86A
:2023A0004800BDF81400002118F08CF82DE0C046E8E5002022F08CFC002818BF032F16D1AD
:2023C000022022F08BF9B749E06809781BF09CFB0246A879000911D28AB959464878401C87
:2023E000C0B20428487004BFBB48E06006E022F0A2FE0146012011F0C3FA02462AB1E07947
:2024000001214FF47A7222F012FF88F00100C7E1DFF8CCB2BBE10646B04A3378277811682D
:2024200068781A46521E00F08D81521E00F09480183A00F0A681B93A00F09F812A3A00F0BA
:2024400083801B1F77D05B1E6ED05B1E54D05B1E3CD05B1E2CD05B1E40F0968120BB707F20
:20246000DBF8109000BBB9F1000F06F1050A1BD0BAF1000F18D04F46B81C5146082221F0A7
:20248000A3FB18B9FF68002FF6D104E038461CF01DFDDBF81090B9F1000F05D19BF8000053
:2024A0004FF400611BF090FB304621F04DFC6BE1012818BF022840F06781307915F0E8FAF4
:2024C0001EF0E0FA60E1C0467C052043002840F05B813079012800F05781022806D00428EF
:2024E00040F05281304617F07BFB4DE1304612F093F949E1880A0120012840F045817088C0
:20250000002840F04181301D01A91FF0DDFE012840F03A8122F030FDADF80C00361D0296D1
:2025200001A815F02FFD2FE1002840F02D81304611F068FD28E1012818BF022840F02481C7
:20254000304608F08DFB1FE1002900F01D813046884719E1C8080120012818BF022840F044
:2025600013815846C0795E46072818BF082805D1237A1BB9012105F009F82778032F00F0F6
:2025800093800A2F16D0042F1AD00D2F18D00E2F16D00C2F14D0002F00F0F6801CF028FEBF
:2025A000E07910211BF0A6FDEEE0C0468B190120480301208048007800F00700012873D03B
:2025C000277A6078002F35D10020E0720746F7701DF008FFF8B120780D281CD00E281AD091
:2025E000062022F07BF870480078000904D34FF4004001210CF0A8FD687830F0010007D101
:202600006E48007900F00700022801D022F098FB1CF0EEFDB8E06878022803D1082001213D
:202620000CF092FD052022F059F842F2107021F05BFBA9E0E17A01280BD003281ED168788A
:2026400002281BD1594900260E7001270320677113E0491CC8B20428E07204DB54480078B8
:20266000012809D00AE0534800884FF6FF7181421CBF0426A672E8D10020607020F064F8A1
:202680001FF0B6FA48480078000902D3287D01287AD16078032877D1082001210CF054FD9A
:2026A00072E0C04601060120207A002848D1E07910211BF01FFD1DF095FE98B96878022813
:2026C00003D1082001210CF03FFD052022F006F801201EF077FA57E000F8FF0790060120E3
:2026E000D00501206F78207837F001070AD10A2808D13149097801F00701022902D02B4AEA
:202700000821117003280BD11CF072FDF079022806D101201FF070FF0220012104F036FF17
:20272000062021F0DBFF687830F001002CD12248007800F00700022826D022F001FB23E080
:202740000020C6E7022F1FD1012818BF02281BD122F07EFC28B112F077FDA8B16878022837
:2027600008D022F0ABFC00280CBF002001201EF041FE09E018F00AFE06E0304605F0ACF859
:2027800002E0304606F0EEFA069821F02DFAE0791BF082FC002806907FF43DAE88F4004073
:2027A00007B0BDE8F08FC046A2180120120001204806012010000120A01801209C180120DC
:2027C0002DE9F04F064693460020ADF13C0DABF80000B06A099303460078884622F022FA62
:2027E00048B1708904461DF0ADFF022804BFABF80040B36A01D0002009901878C84DDFF8F1
:202800002493401E0A2800F20B84DFE810F02F03B3020C04A0028D0151010904BE0088005D
:2028200066000B00BD4C207D012840F0F9835B1CB06913F8015B1F7822F0EDFC002800F00B
:20284000F7830379002B00F0F383032B80F2F0830E2D1CDCDFB9D04907752DB901EB850126
:202860000A6BC261096B0AE001EB85010B6B9A01A2EB8302C2610A6B9101A1EB82018161B2
:20288000012180F820101EF0FDF8002500E001250320B689E4788DF8190006A821F034F9F8
:2028A000071C00F0C58338690C2100F8011B00F8015B04700124BC7721F05CFE786204A9C9
:2028C000304620F00EFE10B17C7704A838627E80BC76384607F02AFBAAE35C1C207820F0F5
:2028E0001F0700F01F00012840F09A83641C04A8214622F0C0FC284604A95D3021F05CFDBA
:20290000002800F08D83002F40F08A830834A2786178207801EB02211FF020F888E3688FC4
:202920007189884240F07C835C1C14F8016B04A8214622F0A0FC284604A95D3021F03CFD01
:2029400006F01F0726F01F06002800F07183002E40F06E83780016F0ADFC011C00F06883A6
:2029600067B184460834384663782278401E04F1020402EB03222CF8022BF5D1009112F031
:202980009AF808461DF03EFF52E35C789A1C34F07F0704F01F0E40F04B83377F03201EFB93
:2029A00000F0801CC1B2B94240F04283002714F01F0F04BF4FF6FE7C614618D0D9789B785A
:2029C00070464D4603EB012C5378117812F802EF01EB03213EF0770340F02A832B888B422F
:2029E00008BF0EF00707521C401EEDD1BFB960464FF6FE72824212D004F06002602A0ED043
:202A00004D462A88A30907D2E30902D2904203DD0EE3904203DD0BE39142C0F20983B0899F
:202A200022F0CDFB002836D1B0894FF6FF7120F0B9F9041C14D11FF0FDFA041C00F0F88248
:202A400000211C2218F0C4FAB0894D460E35208028886081AA23A374062222740121617478
:202A6000207C0C2805DB0620072F2074BCBF7F1CFFB2677400202073A01C21F064FA00280E
:202A800040F0D682307A002800F0D282B169A01C22F0F1FBCCE20021C171017A0C2905DB33
:202AA0000621072F0172BCBF7F1CFFB24772BFE2484671890088884240F0B282307F02280E
:202AC00040F0AE82AA4CA01D00884FF6FE71814240F0AE82162020F091FF071C00F0A88271
:202AE00001213970B07900280CBF081C02207870B06A4078B872000902D2B0891EF010FD94
:202B0000B169B81C22F0B7FB0020F874287839461CF0E2FDB089E0808AE2C0464C040120F1
:202B2000C8FF00200200012070891DF00BFE002840F076825F78B94987B10C2F03F10203E7
:202B400080F276828C463D465A7818786D1E03F1020300EB02202CF8020BF5D14846758940
:202B60000488DFF8D892AC4200F0B280B37C002B00F05E823B1C0A974FF0000811D0A74A3D
:202B800038464146921E32F8023F9C4206D0401E01F10101F7D104E0C06902000A914FF05E
:202BA00001082846002118F0D7FF00280B907ED0407901287BD10B98807910F0180F76D057
:202BC0000B984188384621F0CDFB10B9B8F1010F6DD109F55F794FF6FE704FF000080C97FF
:202BE000B6F80CB0CDF820904FF0010A0D90C14611E0B8F1010F08BF4FF0010908D022F064
:202C00009AFAC0B290FBF8F101FB08F1A0EB01094FF00008C246089D14271C3D35F81C4F90
:202C20004FF6FE70A04213D0A34511D00C98214621F098FB60B96B7C53B1072B08DA08F193
:202C40000100BAF1000F5FFA80F801D1C14521DD7F1EE3D1B34D332735F8244F0D98A04240
:202C60001AD0A34518D00C98214621F07BFB98B96B7A8BB1072B0FDA287901280CD00228AB
:202C80000AD008F10100BAF1000F5FFA80F803D1C14501DC0D9407E07F1EDDD1B8F1000F93
:202CA00002D0B9F1000FA4D00D980B994880B37C5A4C581EB074F77C00970A9D01950294B8
:202CC00001220392B189B269708914F09FFDAFE1B4890C2F80F2AC818846ADF81040BD48DF
:202CE0008DF812700168CDF8148009B104A8884720461BF05BFAC82803D14FF6FE701BF08E
:202D000055FAC82880F2948109EBC00000F6CC05686808B11DF076FD2FB1780016F0CAFA47
:202D2000686010B984E1002068606C80C2486F70007828706878002800F07A8168680028E5
:202D400000F076817A00414621F044FC70E1307F022840F06581099828B94D46718928883B
:202D6000884240F065810998314609F051FE5EE1E0010120B5F8481040461DF0FFFBA84652
:202D8000074608202FB17D781DB90621397007257D70B16A0A79CC788B794D7891F802A054
:202DA000CF7904EB02244A7902EB03296A0928BF1020AA0924BF0830C0B235F0700340F048
:202DC0003781327F904240F0338105F07005680938BF002006D306A8083122F04CFA25F0B5
:202DE00010050820A90907D3B16A091804A8083122F041FA25F02005204651461FF05CFEFC
:202E000008280DDA8D4B410001EBC001C9188879B84240F30D818F71002002E0C8C200208C
:202E20000420B8F83A10A14219D048B9B189484601222B460EF0E8F828B1F9E0A4C2002035
:202E4000042840F0F58006A804AE009049463A46534601962046029511F0A8FAE8E0B189D0
:202E6000484601222B460EF0CFF8E1E0B5F8481040461DF083FB4FF00609041C03D060787B
:202E8000002800F0CD80B06A817847780891C378017900F1050A03EB0120099040461CF073
:202EA00067FC9AF8001009185FFA81FAB80928BF4FF00E0937F0780040F0B28007F018000A
:202EC000182800F0AD80307F814540F0A9804FF00009CDF800900899B0895246434618F027
:202EE000AFFE032800F09C80002807F078074DD117F0180F18D195F8310028B1B0894146C4
:202F000001223B460EF080F809984FF6FE714A463B460EF079F8002838D14FF6FF70ABF83A
:202F2000000039E08CD1002047F00107780928BF47F00207B089394618F00EFE90B181790D
:202F400011F0180F0ED0417901290BD154B14088B5F848101DF012FB20B1437813B1607897
:202F600098425DDCB089414601223B460EF04CF860B94FF6FF70347AABF80000002C0CBF83
:202F80004946B169B089524621F052F9BBF800104FF6FF70884243D1012000900899B0897B
:202FA0005246434618F04CFE099839461CF016FF698F81422ED1099822F001F960B100796C
:202FC000012818BF022807D1099804A920F089FA08E0C0466C03012021F0CCFA014604A8C6
:202FE00022F049F9307A012803D1B16906A822F042F906A8009004AF0197B06A407840F036
:20300000300002900999089BB0894A4611F0CEF948460CE0B06A80F805A020F01DFB06E059
:203020004FF00009F4E7099930460FF0D5FF099009980FB0BDE8F08F66040120FEC20020FA
:203040002DE9F04FAD4C04F12C000768ADF1540D17B1002087F84500DFF89C82002517F1C5
:2030600048030BD0BF6DA34E73612FB940460068D0F84C05804773695868706022F011F9FB
:203080001390082013F002FB19F0A4F9464610B181A022F077FA1BF0E7FB684621F038FDED
:2030A0000427284669468DF8007021F089FE206421F08EFC09A821F0E3FD284609A98DF8D5
:2030C000247021F0E5FDA06321F08CFC0DA821F0E7FD28460DA98DF8347021F0E9FDA16BD3
:2030E000E06319B974A022F04DFAE06B10B977A022F048FA206C10B979A022F043FA30687A
:20310000D0F8E00380473068D0F8180280473068D0F8F0028047404600682F460726A03083
:2031200001687B5823B11846804740460068A030761E07F10407F3D1D0F8B8028047EB20ED
:2031400021F020FFE06A2F4670B105A8FF21082217F03EFFE06A05A9082220F035FD04F1CB
:203160002C06012818BF3768654A0CCA05A8391C80E80C0021D1082016F09CF85FEA00087E
:2031800056D0A8F10206032721F0D5FF06F8020F7F1E4FEA20207070F6D13020F82706F820
:2031A000020F4146082204F1480088F8077021F011FA40461DF026FB04E004F148000822FE
:2031C00021F008FA0120082105AA21F07DFF04F14806002818BF092826D120F0F4F9800867
:2031E0001DD205A8FF21082217F0F2FE07AFFF210822384617F0ECFE0120294608223B4648
:2032000021F0CCFC80B9384605A9082220F0DCFC28B930463946082221F0DCF904E0012073
:203220000821324621F056FFE22031461DF06AFC20F0C9F9400834BF2F1C0127314E552027
:20324000012106F1320221F03FFF18B917B128461FF0D2F92C4EE22006F1400120F08EF8A7
:2032600038461AF001FE05A82946102217F0B0FE707830F001004ED1DFF8908005A91022D5
:20328000404620F0A1FC002842D105A84146102221F0A0F93FE0C04652616E646F6D5F7358
:2032A0006565644175746F6D617469632829206661696C656400C04641455343434D206F22
:2032C00070656E206661696C656400C0414553454342206F70656E206661696C656400C0AC
:2032E00054524E47206F70656E206661696C656400C046C03C05012014010020DCD800200B
:20330000286C0200D00501204C040120D069020005A81FF041F96220102105AA21F0D4FE3A
:2033200028B927B16220102105AA21F0D3FE05A82946102217F04CFE384611F01BFF3846DA
:203340001DF0FEFF384612F05DFA7078A8B905A81FF022F940F20110102105AA21F0B4FE86
:2033600030B92FB140F20110102105AA21F0B2FE05A82946102217F02BFE1FB128460121C2
:203380001EF078FB282015F095FF0028606400F04081206B616B221D19F0CCFDCA4908703B
:2033A00010211AF0A7FE616C201D0860206B616B04F1080219F0BEFDC2490968D1F84C13FD
:2033C0008847616C04F108004860206B616B04F10C0219F0AFFD0CF0EDFF616C04F10C00E7
:2033E0008860206B616B04F110094A4619F0A2FDB64F7870B18EBD70381D0180303006F1C2
:203400005001119007F1340021F035FFDFF8C08296F8230006F148032946FB604FF4B4720A
:20342000387008F5057017F0D3FD04F1340B04F1300A626CDBF80010DAF800003C2308F559
:20344000057C0C324FF6FE7E5B1E2CF806EBF9D1C2F8009004F1140219F06CFD9F4B9D49FD
:203460007B629D4A08709E4B606CBA6004F11802DBF80010BB6204F114030361DAF80000F0
:20348000129219F057FDDFF85C9289F80700022289F824204FF6FE70A9F81C0021F06AF812
:2034A000914811990560AF4821F0E5FE4046FF210E22801C17F08CFD8C488E4B83608E4ACF
:2034C000C2608B49416005708C4B03618C4A42618E4939618B4B83618B4AC2618C4B7B6156
:2034E0008C4ABA618E488C4B8C4AFB618E4910618C4FD16009F1300097601CF0B7FF1CF0B9
:203500004FFF984809272C307F1E40F8045BFBD14F46F87948F201011BF092FEF8794FF460
:2035200000411BF08DFEF87948F221011BF088FEF87948F222011BF083FEF87920211BF03F
:203540007FFEF87921211BF07BFEF87922211BF077FE606C12994161DAF80000DBF80010B5
:2035600004F11C0219F0E6FC704F48F2150138701BF066FE387838211BF062FE6D4B6E4A43
:20358000FB606B483A61616C786102234FF6FE72DAF8000087F8283004F11C038B61DBF886
:2035A00000103A8404F1200219F0C4FC634904F12003634A0870634F606CDBF80010C361EF
:2035C000DAF80000176004F124073A4619F0B2FC65497378087023B991F833300BB1022193
:2035E000F17148F202011BF02BFE606CDBF800100762DAF8000004F1280219F09BFC2070BF
:203600005149087021F0A0FC4870616C04F1280048621AF097FF12F08DF8139821F0B6FF07
:203620000EF08EFD20F0DEF826480068D0F8D40090F8430020F0E8F822480068D0F85824D8
:2036400029460120904721F077FA40481D4F05707868C068007830B938460068D0F8582485
:2036600028460146904716F0CBFB3A4F3D703848058145818581C581058245828582C58208
:2036800005832B464583344C858307210360344A4360324825701FF021FE16F003FD1DF0E5
:2036A0008BFE1CF095F97078022807D13078012804D14FF4004001210BF046FD15B0BDE80A
:2036C000F08FC046140100208B19012048060120A4C20020240A012029170100357401003C
:2036E000C14C02002C030120B0040120AC080120A1C200009D2C0200A9CA0100E31A020020
:20370000ED3102008101020015320200895D0100913801001136020079A1000094090120EA
:20372000AD36010059A70100B92A0100840601202D170200692B02002D330200700A01203C
:203740007C0A0120C5090200600A012094190120481701208D1901208C190120EC00002080
:203760001F53020040030120D00501202DE9F04F0446B54DB5480021ADF14C0D001D2E6812
:203780000768A0780C910146102910DC102900F0AC80002900F0AE82491E012940F2FD81BA
:2037A000891E00F05581491E00F0248144E3113966D0491E1ED0491E03D0491E00F042834E
:2037C0003AE3207967798DF81000E0788DF8117020F04AFD002808BF022005D00C3004A93A
:2037E000022220F0F7FE0C988DF82000132108AB01223BE3204634460421C61C304620F0C2
:20380000B1FB0C9F0121002C35D0A268904203D02468002CF9D12EE06CB3361D304621F0C6
:20382000D5FBB778804657B92868844218BF251C2068286020461CF0E5FF0C991BE0B81C6B
:2038400015F038FD051C04BF10210C9F13D00C9828706F7061683A46A81C414420F0BAFE16
:20386000BE1C642012212B46F2B21DF079FC28461CF0C8FFFDE23170334612217770F4E2F6
:2038800020460126C41C8DF82160204621F09EFB6F68A3780FB3B3B938680090686818303D
:2038A0000190787E0290B87E03903969BA8AFB8A381D08F001F88DF8210068681CF0A2FF52
:2038C0000C9868600CE03968E41C1A4609180846214620F07FFE0C9800E010208DF82100D2
:2038E000112132460DF12103C0E22546BD4C89462D1DA07815F8011C002937D0491E10D014
:20390000491E02D0481E67D064E0287821F068FA002869D041680978E170007820710C98F1
:2039200054E02D7800285FD1E1200DF123011FF025FD9DF8230085424AD00126A6703046B6
:2039400021F022F90C9809A98DF8240052201DF0D9F828461BF0FCFB002839D065702078DE
:203960003146642221F063FCBA202FE000283BD1E1200DF125011FF001FD9B4E06F13C0768
:203980009DF825103878884222D0DDF8308001255220A5700DF126018DF826801DF0B2F8B8
:2039A00096F83C000A2805DD1B2803DAE12039461DF0A8F88DF8265052200DF126011DF03D
:2039C000A1F8404621F0E0F84046A07002460CE00C9A0AE00220F9E7284621F0F7FA0C9A6D
:2039E000A97821F0BCFB00B901228DF822200DF122031FE210218DF82710E1788046DFB17B
:203A00007A681278384691420ED03F683FB17A681278914205D038463F68002FF7D1022022
:203A20000BE03968016002E0B1493868486038461CF0E8FE0C9800E001208DF827000DF1B6
:203A40002703CDF83480A5E0A80A0120680A012001218DF828100C990D900C2204A817F0D6
:203A6000B7FA25460224ED1C8DF81840284621F0ADFAAF1CADF8100017F8010B8DF81900BF
:203A800017F8010B21F0ACF98146384621F09EFABD1C0E9015F8010B15F801AB15F8018B85
:203AA0002E788DF82900700015F004FC0F9000286CD06D1C4EB183463746284621F086FA6D
:203AC000AD1C7F1E2BF8020BF7D1B9F1000F57D0CDF8409015F8013BDDF83C903746AB46BB
:203AE0000C2FBDF8105011934ADA28461AF05EFBC82815D14FF6FE701AF058FBC8280FD127
:203B0000C34890F8CC38012100F6D40C0C981CF8082B9342C4BF131C081C491CC829F6DB59
:203B2000C74C4FF6FE7604EBC0046068668018B11CF068FE0C9860606FB17E00304615F0A0
:203B4000B9FB6060002808BF102419D060684946324620F03FFDC9486580007867700DF187
:203B6000290620701099CDF800B00E9A0196119BCDF808A004A8CDF80C8007F09DFE044637
:203B80000F988DF828401CF03DFE02E010208DF828000AAB0D9881464CE194F801B00121DE
:203BA0000228814604F103048DF82B101ED114F8010B03288DF8180005D0204621F006FA3D
:203BC000ADF8100004E004A82146082220F002FD083414F8010B8DF81900204621F0F6F9A8
:203BE000A41C11E0700A0120C8FF002002208DF81800204621F0EAF9A41CADF8100014F8F8
:203C0000010B8DF819000C98ADF81A0014F8010B21F0E6F88046204621F0D8F9A41C0D9025
:203C2000B9F1020F14F8010B14F801AB14F8017B8DF82A001CBF14F8016B06F10A0006D197
:203C4000204621F0C3F9A41C064606F11400B8F1000F80B240D0FA2830DD6C68002C3BD1E5
:203C600006F11C0015F026FB04466C6024B30C9804F11C0504A98DF82B000C222560201D17
:203C800020F0A8FCC4F810800D98A082E6829DF82A50257684F819A0A7760F23E376784CAA
:203CA000207808214FF47A7221F0C1FAB8B1207808211AF01FFA12E010200EE000940DF159
:203CC0002A000D9A019041463346CDF808A004A8039707F0F1FD00E002208DF82B002BF01D
:203CE0001F0BBBF1200F40F0C4800DF12B03A1E0680A01204FF0100A89468DF82CA05046FC
:203D000015F0D8FA071C00F094805D48E41C7860207821F065F800287CD120780C9E3870C3
:203D2000B04687F80C80142015F0C4FA0028B8606BD014F8011B017062782178A61C01EB56
:203D40000221418031787278B41C01EB02218180817914F8022B01F0F00102F00F020A43A7
:203D60008271B96814F8010BC871BD68EB79464673B1580015F09EFAA860B8688568002D6E
:203D800008BF564604D03046BA68D179814231DC2078B9680873BD682B7B73B1580015F0BA
:203DA00089FA2861BD682B69002B08BF564606D0641C4046297B814210DC102E2BD1A86837
:203DC00010B11CF01FFDBD68287B18B128691CF019FDBD6828461CF015FD1CE06278217896
:203DE0002B6901EB022123F81010BD68A41C421CD0B2DFE7637821789268451CA41C01EBDF
:203E0000032122F81010E8B2BEE7564603E0C046A4C20020B8268DF82C603EB938461CF08A
:203E200025FB8DF82C009DF82C0010B138461CF0E9FC0BAB4946DBE402200C9019E0C046FF
:203E400070CB00200C988DF810008DF81100E07804A91FF0F5FD9DF8117014219DF8100042
:203E60008DF81D7007AB8DF81C00022264201DF077F90C9813B0BDE8F08FC046660401209C
:203E80008B1901202DE9F04FADF13C0DC54C0B90C3480C91002147780E919FB137F00106D0
:203EA00008D0022F12D1207900F0F80141F00201204605E02046017901F0F80141F0010118
:203EC000017103E0207900F0F8002071261D3078402537F00102657100F00700307005D1BE
:203EE0008E20A0716FB940F0010009E0022F08D1AB4980200978A071012902D140F008005C
:203F0000A0710E99F170317150256572A020B071F171B072F172A089099140F43050A0813A
:203F20002174BAB1022F1CD1012018F05FFE28B9206820F00F0040F0020004E0206820F0A7
:203F40000F0040F001006FF30F1048F220210143216006E021684CF210106FF30F010843D6
:203F60002060924B9049A0791F780A9381F8320067B90E9819F078FF8B4890F83200000937
:203F800011D30E9808A98DF8200009E0084690F83200000907D301200DF121018DF8210086
:203FA00052201CF0AFFD1AF0CDFA1FF00CFB800838BF0E9803D30E981EF01EFB01200028DF
:203FC000DFF808A30D9040F0D8800FF0FFF95FEA000B40F0C380744ADDF83880212074215B
:203FE0002432174621F070F8002859D12120414674223B4620F0D2FD002851D16A48408FBA
:204000004FF6FE7181424BD0674890F84A004FF00108082806D0042804D00FF007FFDDF865
:2040200038803DE0C14642200DF122018DF822901CF068FD07F12F0143201CF063FD07F18A
:204040002C0147201CF05EFD07F11C014A201CF059FD07F11A014B201CF054FD07F124018C
:2040600028461CF04FFD07F1160153201CF04AFD07F12D0154201CF045FD07F11801E120AB
:204080001CF040FD484890F83200000938BFDDF8389052200DF122018DF822901CF032FDEB
:2040A0000E9D17E0DAF804100E9AA80000EBC5000C23401881460090294601201DF04EFAB5
:2040C00030B999F80000FF2804BF099889F800006D1CADB23248BAF800104078A942E1DCD6
:2040E00030F0010001D10EF0F7FF9448001D006800B180471DF0A8FAB8F1000F1BD020F09E
:204100003BFF0A99888318B9307800F0F800307023484078022818BF012104D1224A09988E
:20412000032182F84A000A98393741703946143021F0A1F801E04FF0090B7F4D0999184F5E
:20414000A81C0180787818B91CF04CF938464078BBF1000FA94605D10E9904E01048DFF898
:20416000D891407801210D910F490A9D91F83C20012707FA02F1E96085E00FF027F90FF092
:2041800055FE094A21207421243220F0A3FF02A8FF210C2216F01CFF0E9D574610E0C04644
:2041A0004C0401209C180120C8FF00202C030120294601200C2202AB1DF056FF6D1CADB2CD
:2041C0003888A842F4DCB848407830F001000ED102A8FF21102216F0FBFE0E9D0320294675
:2041E000102202AB1DF040FF6D1C332DF6DB5348006800B180471EF03BFD099806220E99A9
:20420000ADF8100002A816F0E3FE142015F052F85FEA00081BD0A34810300768A7B103277D
:204220000225A8B202A90622404420F0D3F9AD1D7F1EF6D104A94046022220F0CBF94C2005
:204240001421424620F046FF40461CF0DBFA182015F030F8071C10D00E9D1822294616F023
:20426000B7FE0620294618223B461DF0FDFE6D1C032DF6DB38461CF0C5FA17F00FF88A487E
:20428000DFF8B49040780D99864D012966D1B44F2437E8B1012807D002280BD1307800F0DC
:2042A000F80040F0020004E0307800F0F80040F001003070A3481FF0E5FB002808BF099825
:2042C0000BD00A9A04210320917206E0880A01203178022001F0F8013170DDF8288088F828
:2042E000010020F028FF0B996F4E00F07F000818643080B20E90F06B0221C8F80C00FF20C9
:204300001DF0B8FB96494FF6FE70431C48870E46F0870998A1F848301DF084FC62484078B1
:20432000012810D10C9801280AD0099902A8082216F04EFE02A804E0A8090120C0080120BB
:2043400009981CF0BFFB212074213A4620F0C2FE099802211DF08EFB53484078DDF834A07A
:2043600018B9A08940F00100A0812F6987B9122014F0A0FF0646002E2E616ED04FF6FE704A
:20438000B61F0327411C26F8060F7F1E7180FAD1BAF1000F61D1099906AB4C20022220F056
:2043A000FDFB002852D1BDF8180000284ED004284CDA182014F07EFF03274FF002084FF6E4
:2043C000FE7B0646099C2B691FFA88F14C2006221B1920F0E3FB78BB2869015B8B452BD0AC
:2043E00056B300962018099A4188182306201DF0B5F830692A6900F2E9333361101941889F
:2044000005F11402880000EBC10029691350081973694188880000EBC100801829694360A0
:20442000081941881822334606201DF01DFE09993046182216F0CCFD7F1E04F1060408F1DB
:204440000608C0D116B130461CF0DCF9164B099971200822483320F0A1FB13484778381C4C
:2044600006D120F087F820F03BFC0F48477817B120F02EFC18B10120E870099E2E71324875
:20448000324EC9F80C00C9F810607FB137F0010003D11EF033FE2F480BE01EF02FFE2E4820
:2044A00007E0C046D4E500204C0401201EF026FE2A482749BAF1000F086019D0284890F8AE
:2044C0006500A8B92748407890B9DDF82480622102AA404617F028FC02A841461EF050FAC4
:2044E000404613F0D5FA02A81022414616F070FD0A98006950B10A9C1034076820681CF095
:2045000081F90A99384600280861F6D10A9A099F01200146107002F10904577285200932CB
:2045200020F0D2FD28B9852039460122234620F035FB0E981FF060FE1FF0A0F850460FB0BC
:20454000BDE8F08F7C060120ADE70000A14D020054080120D16A0100293F0200D97401009F
:20456000C8FF00204C0401202DE9F04FBE48C84CADF1340D06902569406801214FF0E04741
:20458000C06809934FF000080170C24808921F4080F800804FF0020000EA020008BF002888
:2045A00040F0E682DFF8F092DFF8F0A21E4611464FF4803018EA060700EA010008BF00280A
:2045C00033D141464FF4003011EA060700EA020008BF00280ED137464FF48000394000EA78
:2045E000020008BF002800F0B78285F8048018F00DFEB1E285F80480EB201DF07FFC4A46D6
:20460000514682F800800878862801D11DF0F8FC20F047FEE1690A6882F804800968E16146
:2046200020F0B4FF1FF0BAFE96E285F804801DF0CDFC81262778A4F80C809949A770994D54
:204640000860994B2E70FF221A702169069E087A801E81B230684A46D0F8000182F8008059
:20466000C0890B918842C0F26B82E1690831096804F1180001600426A6810B98657EA17E94
:2046800004F11902C01E80B2069EE37E0B9005EB01205178C1F301193168608101F1B80C82
:2046A000DCF80010237109780792002908BFB9F1020F00F04582B9F1020F00F3418219B1CB
:2046C00010F0070F00F03C82667800F00705AD1E022D08BF002E00F0338231B151460978AE
:2046E000862902D1002D40F02B82001300F00200022864DA35435AD1DCF81C0090F8830023
:20470000022851D0E1690C31097805A801700527A78120F0C6FD554606462878862840D1BB
:2047200006980068403001680F6837B9D0F80C05804706980068006C07689DF9140020F0F8
:20474000EAFD787706980068016C096881F81E80006C9DF914100068C177304620F016FF27
:204760002679678920F09DFD51460A7807F01007862A15D1BA4D05F11E031A88521C1A807B
:2047800087220A7020F002FFE879B04206D11FB9404614F0BFFF07E01B20FAE7E920F8E7B0
:2047A0000646304620F0F2FE1FF0F8FDCAE151460878862803D11DF023FCA77866788FB186
:2047C00086B9012F00F0BC816089022F03D110F0070F40F0B581032F05D100F007010329A7
:2047E00001D0ADE16089010980F0AA81011301F00201022902DA810A80F0A281079949783E
:20480000C1F3810BBBF1010F4FEAA1110A9100F09781012900F09481B9F1020F14DA00F046
:204820000701012918BF03290ED1BBF1000F0BD10A9F002F00F0848106990968AC310968A2
:204840000F78002F00F07C81BC49B9F1020F0DD00A9E11F80B708A5DB918CFB25EB3C109D8
:2048600029D3BF1E12E0C046140100200A460A990BEB0207891809793A795218C109D7B2AD
:2048800014D20A995BEA010615D0BF1CFFB212E024170120580A0120951901209819012060
:2048A00074190120931901206DEF00200A995BEA010608BF02270B9AC0F30021781A617145
:2048C0008242C0F23D81069E1046C01B4018316880B2D1F850122081743080B28847002813
:2048E0006678606100F02C814146742216F070FB84F8038062891EB9C14902F02000087099
:20490000BF4861790678C446002E30D000292ED102F00700032808D0012828D106980068B4
:20492000D0F8D40090F882600EB306984068406906781EB120F06AF8FE2815D006980068F1
:20494000D0F84C02804750B906980068D0F84402804720B96289617994F803C007E004209E
:20496000E0706289617901E00420E07084466569268905F1740305F17400AB65079B686035
:2049800093F801A02E812089CAF301190029A5F85C001878AA8100F0780049EA00004CEA0E
:2049A000000028744FF0FF06AE730CBF2079404685F83AB085F849000A9885F83000A08967
:2049C000002FA0EB010086B2A68100F0B480E169E78068463A468919083113F00BFCBF19FD
:2049E000B8B2A0812846017C4FEAAA0212F0030F02F003076D4601F0400B42D0B9F1020F90
:204A0000434601D1C9090BD29DF801209DF8001001EB0221A0F844100DF10205A0F8421047
:204A2000814EB0F84410B6F846208A4203D04FF6FF728A4223D1032F14D06A78297801EBFD
:204A4000022189B24186B6F84420AD1C01208A4214D04FF6FF728A4218BF181C0EE0C04604
:204A60001C08012060692946323020F004FC60693B36314632301FF09FFC08350346002BD9
:204A800056D00798407886111ED06169B9F1020F03D0087CC00903D309E05BEA070306D18A
:204AA0006A782878AD1C00EB0220A1F84200032E05D068782A7802EB00220A8504E06069F0
:204AC0002946283020F0D7FB06990968AC310A686089167886B1B9F1020F0DDA00F0070285
:204AE000012A18BF032A0BD162692FB94F4BB2F842201B8893421BD100F00702032A05D0F3
:204B0000012A18D1886A90F88200A0B1D1F89C116069884778B9079881786769407884F859
:204B20000380C1F3011100F078000843387402E018F06CFB06E00BF05FF803E02C700200C3
:204B40001FF01EFC20F0ADFBE1690A6882F804800968E16120F01AFD0899099E20204746CB
:204B60000840374008BF002830D01FF0D1FB2DE02F4991F90000002803DD91F90000401EAD
:204B800008702C4991F90000002803DD91F90000401E0870114640461E464FF08077084077
:204BA000374008BF00280DD0234991F90000002803DD91F90000401E087020480121017059
:204BC0001FF0ECFD85F8048018F020FBDFF864C09CF90070B7B108994FF0E04702203740B1
:204BE00000EA010008BF002816D09CF90000002812DC06980068D0F84C0580470CE0C04672
:204C0000951901200E48069F80F800803868D0F8582441460846904706984068C06880F85C
:204C200000800DB0BDE8F08F3C050120820501205B0A01205A0A01205C0A0120590A0120F3
:204C4000560A01202DE9F04F0446B54EA578F06A4FF0000BADF14C0D2946312911DC312969
:204C600000F0E280DFF8C882B24F142914D91C3900F06281491E00F01B81133900F0E980D6
:204C80007FE2323900F0BA80491E69D0491E012929D9891E17D074E2DFE811F06402A50232
:204CA000A102500299027302730224024E010A010D02F8018F0273028902DE017302730298
:204CC000C901B801760240B1C06830B1E01C20F07DF9F16AC968884700E003208DF8380042
:204CE00036210EAB61E201270028A8468DF839702ED0406A60B3204602A91EF0F5FE342DC7
:204D0000044618BF584602D120F060F9A41C2578E0B902A81FF07DFF641C01280DD1BDF831
:204D20000C00294622461EF0EDF8BDF80C00012803D1E22021461BF0E5FEF06A466A02ABD1
:204D400093E803002A462346B04702E0042000E003208DF8390041460DF139033D46A5E075
:204D6000002840D0C06900283DD0204602A91EF0BBFE054602A81FF04CFF012818BF5846D8
:204D800003D1BDF80C001FF04BFE0446284620F01DF9AD788046F82DA8BFF725A81C5FFA98
:204DA00080F9484614F086FA071C1AD0A4B9F06ABE1C02ABC469009693E8030042462B46E3
:204DC000A047041C08D1584638704A4633213B467D7061201CF0C4F938461BF013FD1CB9A3
:204DE0000DE2102400E0032408A85946022216F0EFF88DF82040332108ABFCE168B1806A5D
:204E000058B104A920461EF06FFEF06A826A04AF97E803009047014600E0594602A81FF02A
:204E2000CDFB32210422D8E160B1806950B1204602A91EF059FEF06A826902AF97E803008F
:204E4000904700E003208DF83A0031210DF13A03ABE101258DF83B5010B3006900B3204625
:204E600002A91EF041FE04211FF07CF85FEA000814D014F01FFAF46A071C14D059464246B4
:204E800016F0A6F8246902A803C842463B46A0478DF83B0038461BF0B5FC04E0052000E099
:204EA00003208DF83B0030210DF13B032A46A3E1E41C8DF83CB0204620F088F8A846092D03
:204EC000064609D0A01C20F081F80746201D20F07DF8A41D054602E0A778E578241D242E5C
:204EE00003D12088352606AC069030461DF086FF7919884216DB27B93046294622461EF003
:204F000001F830462946224620F0E4F830B9012E0BD1E22021461BF0F5FD04E00A2002E015
:204F2000DCD8002002208DF83C0041460FAB3CE18B190120647002002646F61C304620F0BD
:204F400045F8A9468046B8F1240F46D01FF068FD0446082D08BFB67803D0B01C20F036F8A8
:204F6000064640461DF04AFF86422BDA5CBB801B85B2F82DA8BFF725A81C5FFA80FA50467E
:204F800014F098F9071C1BD0B81C59462A4616F01FF8BB1C404631462A461FF0FFFD48B91E
:204FA00058463870524649463B467D7061201CF0D7F800E00A2438461BF024FC1CB91EE12F
:204FC000102400E002240AA85946022216F000F88DF8284049460AAB0DE1352059460422EB
:204FE00007AB1FF0DBFD38B9BDF81C20584602210425ADF8262002E00120594602258DF813
:2050000024008DF8251009AB08214FE7E01C1FF0DDFF242802D01DF0F1FE00E058468DF89B
:205020002C00001213210BAB8DF82D00E3E0E01C1FF0CCFF0546601D1FF0C8FF0146242DC7
:2050400003D0284620F0A9F800E058468DF83F0012210DF13F03A8E0E078211D70B1401E0C
:205060000AD10878012805D020B1522010A91EF085F908E0522002E0022002E0E0201BF004
:2050800041FD8DF840000F2110AB8EE041460125087814F8031F8DF842500429A8BF02208C
:2050A00003DA37F8111018F08FFD8DF842000B210DF14203FAE6E41C20780428A8BF0220CC
:2050C0000ADA601C1FF082FF267841460246087837F8161020F0ABF88DF843000A210DF1FA
:2050E000430362E0E01C1FF071FF0646601D1FF06DFFE779E51C0146242E19D0B94205F195
:20510000050510DD30465A461FF0DEFF8DF844009DF8440009280ED16FB1304639462A465F
:205120001FF0D8FF07E030462A461FF0CDFF00E058468DF84400072111AB36E00127E41C78
:20514000E2208DF8457021461BF0DCFC30B93846082122461FF0BEFF8DF8450003210DF119
:205160004503FBE5E078284C30B1401E47D11FF00FFF01202060FEE71FF00AFF0120206088
:20518000FEE74FF0020B3AE094F903001F4F8DF83D003868D0F830240DF13D01E020904735
:2051A00014210DF13E038DF83E00012224E08DF841B00E210DF14103F7E71FF0BCFF8DF87D
:2051C00030000C210CAB00128DF8310013E0E22002A91EF0D3F80421082202AB0CE00C4B3B
:2051E00002210A2208E05920062701218DF834000DAB8DF83570022261201BF0B1FF584617
:2052000013B0BDE8F08FC0467C05204314010020187002002DE9F0430646D648B5780078A6
:205220000024ADF1440D294640292ADC402900F0D981202914DC202900F00A820A2945D97B
:20524000103900F02F82491E00F01F82C91E00F01382491E00F00982481E00F0FE8160E108
:20526000B1F1210000F0EE81401E00F0E581401E00F0D881401E00F0CF81401E00F0C48180
:205280004FE14A2911DC4A2900F08981413900F09E81C91E00F09781491E30D0C91E00F05B
:2052A0008681491E00F07F813BE1B1F14B0000F06381801E00F05981163800F04781401EE7
:2052C00000F036817C3800F02E812AE1091E00F0CB80491E6DD0491E00F02C82491E00F067
:2052E0001782491E00F00482491E00F0F481491E3FD0C91E00F0E081491E1CD011E1304603
:2053000006A9C01C1FF074F88DF81E0048B99DF81800BDF818708DF81F0038128DF8200066
:2053200005E00DF11F00FF21022215F051FE03220DF11E0311E23046C01CD949407880B937
:205340000846DB4E047030681EF036FBD94F38681EF032FB30681BF0C7FE38681BF0C4FEB3
:2053600002E00122084602708DF836400DF13603F2E130468DF83740C61C30461FF026FE66
:20538000B778C0F304213FB9052903D04FF6FF7181420BD1204607E0052903D04FF6FF71B6
:2053A000814203D14FF0FF30D84908600DF13703D2E1202013F07EFF061C00F0D281FF212F
:2053C000202215F005FE731C0120214608221FF0E5FB751C071C18BF01272146042205AB63
:2053E00084201FF0DBFB083560B99DF8170028709DF8160068709DF81500A8709DF814009C
:20540000E87001E047F0020783202146022207AB1FF0C4FB2D1D38B99DF81C002870BDF82C
:205420001C000012687001E047F00407ED1C6120214601226B1E1FF0B1FB08B147F00807EC
:205440002146102262202B461FF0A8FB08B147F01007012120223346672037701BF080FE73
:2054600030461BF0CFF97CE1264630F001008DF83C600AD10FA817F0CBFF9DF83C108046CE
:205480000E2000EB4100C7B201E0A0460E27384613F010FF5FEA00093DD005462146082272
:2054A000012005F8016B2B461FF078FB1FF064FD0835072305F8010B001205F8010BAB4A7F
:2054C00005F8013B1078AA4905F8010B4B7833F0010316D19DF83C0028709DF83C308BB198
:2054E00041466D1C20469DF83C2082420ADD0A782A7031F8022B401CC0B212126A70AD1C93
:20550000F1E72E70672021463A464B461BF028FE48461BF077F9B8F1000F00F02281464605
:205520009EE702241DE122464720E021134616E13046C11C4A7A087A00EB02208A7A8DF873
:205540002E400DF0BFFF0DF12E0305E130468DF82F400822C01C014668461FF03BF86846B8
:2055600019F0D2F80DF12F03F6E030460EF0AAFEF7E0C0464D040120F11C684608221FF0F3
:2055800029F88DF80840CDF80CD002208DF8090002A815F065F90CAB8DF83000DCE0304621
:2055A0001BF0FCFDDDE030461DF0E7FFD9E0F61C307871781DF0F2FD0222307000127070B3
:2055C0002946304671E0304612F072F9C9E0F01C1FF0FCFCADF80200684615F033FD01AEBD
:2055E0000822EDE7F11C01A808221EF0F3FF684617F0D0FBBDF802000DF122038DF82200CC
:2056000000128DF8230015E0F5208DF827400DF126038DF826000DE0F5200DF131038DF84F
:2056200031003AE0F520FF278DF82A000DF12A038DF82B70022290E0F5200DF132038DF889
:20564000320089E0F5200DF133038DF8330083E0F5200DAB8DF834007EE068462146092227
:2056600015F0B6FC162109220DE068462146062215F0AEFC152105E068462146062215F0DB
:20568000A7FC142106226E469BE7F0781BF0E0FD11210DF135038DF8350001225EE0C046FB
:2056A000000A01203278F01C1021034656E0C046040A0120080A01201FF06CFF05461FF01D
:2056C00037FC2C496843B0FBF1F168461EF076FF09210422D7E762201DF090FBF61C014638
:2056E000324662201FF0F6FC0EAB8DF8380033E061201DF083FBF61C0146324661201FF0B9
:20570000E9FC0DF139038DF8390025E0340A0120F01C04211EF026FC049084201DF06EFB39
:20572000014604AA84201FF0D5FC0DF13A038DF83A0011E0F01C1FF049FCADF81A00832043
:205740001DF05CFB01460DF11A0283201FF0C2FC0DF13B038DF83B000122294667201BF0F4
:20576000FFFC204611B0BDE8F083C0462C0301204C04012040420F002DE9F04FCF48D04C0F
:20578000DFF840830F46390CADF1240D80F06582790927D300230370D749437018461FF05D
:2057A0003FFCD64901201FF03BFCD54906201FF037FCD44907201FF033FCD84908201FF0C8
:2057C0002FFC0522D6498DF80C300DF10D001EF001FF41208021062203AB1BF0C1FC87F067
:2057E000100044E2B80828BF87F0020080F03F822068390931D217F4706F08BF002000F094
:205800003682380B04D300201FF014F987F40067F80A04D301201FF00DF987F48067B80A65
:2058200004D302201FF006F987F40077780A04D303201FF0FFF887F48077384617E221687B
:20584000884205D0016829601AF0DCFF286804E0016821601AF0D6FF206808BB606858B179
:20586000C27EC17E521E491ED6B2C17626B960681AF0C8FF002060602668002E08BF002810
:205880000BD04446207808214FF47A721FF0CFFC18B12078082118F02DFC87F00800E6E1D8
:2058A000017B491E0173C9B20029C8D005460068D3E70546D9F8046028781A280EDC1A285A
:2058C00054D0401E00F06C81401E00F02B81801E00F0B581801E00F01781BBE1243800F09D
:2058E000A881AD3800F09E81801E03D02A3800F08B81AFE1A87C0930C0B2804613F0DAFCBE
:20590000061C00F0A781A97800F8011B6988091200F8011B99F80C1000F8011B99F80E1088
:2059200000F8011BB9F80E10091200F8011B99F8101000F8011B99F8111000F8011B99F839
:20594000141000F8011BB9F81410091200F8011BAA7CA9691EF03EFE4520FF214246334603
:205960001BF0FEFB30461AF04DFF73E1B5F824A0E97B0AF114001FFA80F81FF0F0FB00266E
:2059800040B9A87B032805D0B8F1F00FD8BF4FF0810B16DD08F10A004FF0820B1FFA80F88E
:2059A000B8F1FA0F0DDD0AF1100013F083FC061C00F0508106F11000A8EB0A0470601FFA4A
:2059C00084F8404613F076FC079020B9002E00F041813046A0E00446A87804F8010B6888A8
:2059E000001204F8010B287904F8010BA888BBF1820F4FEA202004F8010B1AD1A87B04F8EC
:205A0000010BA87B032805D0A8792070E8880012607004E0A91D204608221EF0DBFDE87BD1
:205A2000083404F8010B287C04F8010B288A001207E0A87904F8010BE888001204F8010B18
:205A4000E87B04F8010B287D04F8010B687D04F8010BA87D04F8010B687E04F8010BE969D4
:205A600020461EF0ABFD241DBBF1820F04D0002004F8010B504606E0002004F8010B04F8F0
:205A800001AB4FEA2A2004F8010B0E480078DEB10B4909680A4B31604FF47A721E600821F1
:205AA0000F2333731FF0C3FB20B106480078082118F020FBE869B060706807E0F00301202A
:205AC000A80A01208B19012020465444A96A52461EF080FD95F82C0004F8010BA88D5FFAAB
:205AE00088F85946001204F8010B95F82E00079E2070442032E7C04675D401009F210200EE
:205B0000C506020029230200A878401DC0B213F0D1FB002800F09E80064623E7D515020034
:205B20001870020029790B2000EB4100C0B21DF065FF002800F08E80A9782E798DF800107C
:205B4000EC788DF802608DF801400DF10301FEB1AA792C79EE880A70022C4FEA26218DF898
:205B600004100DF1050113DB2A7A2C792E890A70032C4FEA26218DF806100DF1070107D17D
:205B8000AA7A6E890A7031128DF808100DF109012A7BAE890A7032124A701EF025F859E0D0
:205BA000002E57D070788DF81500B0788DF816003078FA2819DC9DF8150000F01E00162896
:205BC00011DA2C499DF815000D4600F01F00820050194068091D30B18958304688478DF814
:205BE000140028B9BEE6012000E004208DF814009DF8150020F01F0020287FF4B3AE6020D9
:205C00000021032205ABABE66878AE78EC788DF8180006AB8DF8196003228DF81A404420DF
:205C2000802103E06B1C4520C02101221BF098FA10E0F0783346401DC2B26920F0E7F078E9
:205C4000401DC4B2A11E701CC9B21EF007FEA41904F8010C48461DF0C7FF0748007818F0A2
:205C60001BFA5FEA00097FF424AE87F4004009B0BDE8F08FF00301208B1901202DE9FC47AE
:205C8000D44C0F460646F80B80F00C826078B90F80F0AC81B90880F09F81DFF84C83F90A0B
:205CA00080F00281390B80F0CC80380907D2F80FC0F02E8227F0804716F01EFE28E21FF057
:205CC000F0FA81461DF0D0FF002800F0B48008201FF09AF9002840F0AE8080201FF094F95F
:205CE000002840F0A880684612F0B8FB012803D10098002800F09F8094F84102002840F0CE
:205D00009A8000250126E8B21EF0EEFE48B1837A3BB1867290F9090006FA00F0C0B21CF0AF
:205D200003F86D1C032DEED3032084F8240004F5CE701FF0B2FA48461FF028FCC348002548
:205D40002A460168056050F8081CD44940F8085C04F160001DF0A7FE40460068006B8047B9
:205D6000A168401A010BE06AC1F1FF3282422CBF08444FF0FF30E06294F8300020B12069C6
:205D8000E16AB1EBC02F25D91DF07EFF294600B13146081C1BD0C24840F60901018045806F
:205DA000417B06F00F0221F00F010A434273017B05F00F0321F00F0143EA01020273294645
:205DC00041601EF0D5FF418811F4406FFBD084F83060E56219F02AFFD14829460560022064
:205DE0001DF094FC02201CF017FB112010F014FA207818B9606850301FF067FAC9480078DD
:205E000010B90E2010F008FA94F8310020B184F8315005201CF000FBC348A06284F82450D5
:205E2000B4F9B400B4F9B610884214BF0220072014F040FA02E048461FF0A8FB27F0080722
:205E40003AE720B104201CF0E7FA0020607065681BF050FC38B128462D6A6FF480710022C7
:205E60004FF00073A847E06858B140460068006B8047E2686168801AC860000BC8600026E2
:205E8000E660AA4904F1600000221DF00CFE0221D4F8A00084F8241018B104F1E0001FF04F
:205EA0001CFA27F4006707E71FF0FBF906461DF0DBFED4F898100028894600F0848000299F
:205EC00000F081809A49042504F16000002284F824501DF0E8FD30461FF058FB04F5CE705D
:205EE0001FF0DBF940460068006B8047E0604FF0010884F8018028461CF0A6FAD9F810001F
:205F00006060D9F81000816AC90803D3436A294600229847404617F087FE606880F8198046
:205F2000606810F099FA6568D5F808A040F60A02D01F564600F1010C00E01E46736833B1F6
:205F400019888A4203D0884218BF8C45F5D100217160727B08F00F0322F00F021343737381
:205F6000D9F80C201288904224D06046904221D02B8F03B3E96305F13802518095F84400CD
:205F800001F00F0320F00F00034385F8443095F8450008F00F0320F00F00034385F8453075
:205FA0007260707B01F00F0520F00F0045EA0001717300E0E16050461EF0DAFE5146404632
:205FC0001DF0A4FB02E030461FF0E0FA27F480679EE0C04670EF002009F010FCD4F8A0005E
:205FE00008B927F0020793E08C010010514A116841F08001116020B104201CF00DFA002051
:2060000060701FF04EF980464B480068016804208847216A81421BD1357ECDB1A568BDB157
:20602000D4F8A8506DB1E968098840F60300884204D0E9680988401C884202D106F11400DF
:2060400001E006F110001AF03DFC06E01410044040F6C41131617161206240461FF096FAB1
:206060001BF048FB80B1356A30466FF4807100224FF00073A847D4F89800002808BF47F0EB
:20608000020701D016F038FCF569002130464FF080630A46A84727F0005739E051E10100DC
:2060A000B01801201FF0FDF8D4F8B06066B306F1280106C90A234FF0E0450B40154008BF17
:2060C000002B21D106F1280191E8000306F1280595E8060006F1280322EA090221EA080113
:2060E00083E806001FF052FAB16879B1B9F1000F08BFB8F1000F09D03069B6F93010B568DB
:206100004B464246A84701E01FF040FA27F4804727B104F1E00039461FF0DFF8BDE8FC8731
:2061200000000460EA6F0200713A0100D52E0100493C0200CC210840E00100102DE9F04FEE
:20614000ADF17C0D1B91C0491C923CC9064610A83CC00EC980E80E0000248DF84240327F87
:206160008DF84340B08D8DF84D40D6F828C0ADF844401746ADF85A00F0898DF85470614624
:20618000ADF84A00087800F00303022B8DF8400000F3FD8123461D93491C1E9343083CD2AF
:2061A00000F00C0EBEF10C0F0CD043093CBF11F8013B8DF84230BEF1080F04BF01238DF87A
:2061C0004C3001D08DF84C40BEF10C0F0AD0737903F00303012B0CD140F00C0073898DF812
:2061E000400004E04D780B78891C03EB0523ADF84430430911D24D780B78891C03EB05232D
:20620000ADF846300B784D78891C03EB0523ADF8483011F8013B8DF8433011F8013B30F0A1
:206220007F058DF855301ED00B7833F003058DF8413040F0A88103F0030EBEF1030F00F030
:20624000A28113F0030F01F101010ED011F8013B00F00305022D8DF8573004BF11F8013BB4
:206260008DF8583001E08DF841401491A1EB0C017F1AFFB2BA42C0F28681D21B8DF85470B7
:20628000D1B28DF84D100F4300F08181C10907D370891AF057FA002840F079819DF8400036
:2062A00000F00C012746091F08BF0127820932D301221E9279B3B2891EF05EFE904202D184
:2062C000F08D000A0DD21EF057FE904221D0F18D080A38BF101C07D39DF8400000F00303DA
:2062E0002DE07089ADF85A2080461EF045FEBDF85A10884205D0404618F06CFC002800F096
:206300004681A448026810A940469047002840F03E819DF84000F18D00F003030A0A0ED2F6
:20632000C2090CD39DF8412012F0030F07D100F00C020C2A03D0082A1CBF01221D92DFF814
:206340006082022B00F00081012B00F0CE8010F0030F40F01C81904890F82F00012803D1E8
:20636000B579002D00F013819DF8540002221A900B0A9DF84240BDF846B0BDF848A09DF87E
:2063800055E09DF857C0DDF850908DF86420B0899DF84350ADF85C0075D2454605F11C0216
:2063A0001468002F52D11D9F17B110A912F06FFC7A484178022936D10078012833D1B07CE7
:2063C000002830D070891AF0BDF9022801D0707948B37449B2893C208B1F33F8064F9442A9
:2063E00004D19C78F77CBC4200F0D180401EF4D16878891F3C234FF6FE7731F8064FA742D7
:2064000002D05B1EF9D1C2E00A80F27C8A700C228A8004211AF0D6F928B9687804214FF474
:20642000FA721EF004FFF07C1E9F00901C9D0197594C0295B07C1B9B0390B4F8482017A950
:2064400010A810F053FEA2E0086E0200307C002C8DF8560000F09B801EF08EFDBDF85C20B1
:20646000904240F0948030791E9F00901C9D01971B9A02951D9B039196F8300010A904901C
:2064800017A8A04783E08DF820208DF822508DF82340ADF830107089ADF818008DF835E01A
:2064A000ADF826B0ADF828A0CDF82C901A9B8DF836C0327CADF82A3035798DF83220B47CE1
:2064C0008DF8335096F832108DF83440324F8DF83810B7F84800ADF8240096F830708DF82A
:2064E000377006A805F0EAFB51E01D9FB58937B1080A04D2284610A912F0C9FBB5899DF8B2
:206500005400B6791030C0B21DF078FA071C3ED07D81022038703E737C709DF854203A727C
:2065200007F110057D609DF84000800928BF01247C72149978681EF04DF845466D1C287885
:20654000394619F0C9F822E09DF84100B189454624352B6810F0030F10D110A807901248CD
:20656000ADF8181006A91CF0D7F880B1062141730068407B214619F02DFD08E03BB110A86F
:206580002246984703E08DF84D408DF854401FB0BDE8F08F50080120C8FF00204C040120E2
:2065A00048060120B8C400200FF501002DE9F04F4FF0FF084146ADF14C0D0E910F914FF034
:2065C000000910914E46089609960A96AD4C0B9604F1300B0C96E0680D96494611919EE09A
:2065E000E068710306AA04231EF0A0FD119903AA30461DF059FD02AA304601211DF054FD8B
:206600003046022101AA1DF04FFD069800F0FF0028709DF81900069F6870C7F30140E8703A
:206620009DF80E30AB702878FF2834D0BDF80C70FE2830D04FF6FF70B8422AD107A81AF0E8
:20664000E9FDE06871034FF088524FF400531EF06DFDBA484FF4005750F8041D3F1FBFB29D
:20666000B1F1FF3F07F1885201D1032FF4D810684FF0010A514600F0FF03FF2B18BF8A467C
:20668000491C000A0529F6DB106007981DF08AFF5744EF8001E01020E8809DF80A00BDF810
:2066A000087028719DF806302F81BDF804206B7129786A81E068FF292AD0FE2922D07E29E3
:2066C0001AD07C2912D078290BD0702904D00D99491CC9B20D9120E00C99491CC9B20C911A
:2066E0001BE00B99491CC9B20B9116E00A990F96491CC9B20A9110E009990E96491CC9B2B0
:2067000009910AE00899B046491CC9B2089104E009F1010710965FFA87F9761CF6B2E578E9
:20672000B54200F323810D9F002F38D10898022835DA0C98022832DA099802282FDA4D45CE
:206740002BD00C98C0B90898A0B90B980A99084325D01CF09BFD854219DCB9F1000F14D0A5
:2067600094F83200FE211BF00FFEE5780120DDF8408015E0012013E0089860B9B9F1000F96
:2067800007D11CF083FD854201DC062008E0032006E00220EBE7022002E0119800E0042035
:2067A0000028A07000F0CC80401E49D0401E00F0AA80401E06D0401E00F09880801E00F04E
:2067C00094800EE11CF062FD05460C2084F83C5015FB00B0817E84F83D10C07E84F83E004C
:2067E0000DF09AFBE2782D1895FBF2F050432D1AE8B284F83200401C90FBF2F15143401A1C
:2068000084F831007C201AF059FFFF2810D17E201AF054FFFF280BD1FF201AF04FFFFF2829
:2068200006D178201AF04AFFFF2808BF94F8310084F833000C2110FB01B0808BE0868FE073
:206840000F9F08F1010090FBF5F184F832806943FF2FA0EB0100C1B284F8311014D10E98D0
:20686000FF2804D10C200E9111FB00B004E00146880000EBC100584484F83310808BE0866A
:20688000AFE0C046540201203A46D0B2910084F8330001EBC2015944898B1729E18640F271
:2068A000A080C91F01AA89B211F0D0FA9DF80F00C0083FD3119F0097BDF81220E18E94F878
:2068C00033000323891AC91F01AA89B208F0ECFE002840F08680BDF81010002900F08180BF
:2068E0009DF8140018F0D2FE7BE0FEE7119EB54226DD30460FF030FC6178E578761CF6B21D
:2069000001436170F3E708F1010084F8328090FBF5F16943401A84F831005FFA88F00FF06C
:206920001BFC6070FE215FFA88F01BF02DFD012084F83500119801F0F3FD52E0002000118C
